{
  "_format": "hh-sol-artifact-1",
  "contractName": "BMStreak1155",
  "sourceName": "contracts/BMStreak1155.sol",
  "abi": [
    {
      "inputs": [
        {
          "internalType": "string",
          "name": "_baseURI",
          "type": "string"
        },
        {
          "internalType": "address",
          "name": "initialOwner",
          "type": "address"
        },
        {
          "internalType": "address",
          "name": "treasury_",
          "type": "address"
        }
      ],
      "stateMutability": "nonpayable",
      "type": "constructor"
    },
    {
      "inputs": [],
      "name": "AlreadyCheckedIn",
      "type": "error"
    },
    {
      "inputs": [
        {
          "internalType": "address",
          "name": "sender",
          "type": "address"
        },
        {
          "internalType": "uint256",
          "name": "balance",
          "type": "uint256"
        },
        {
          "internalType": "uint256",
          "name": "needed",
          "type": "uint256"
        },
        {
          "internalType": "uint256",
          "name": "tokenId",
          "type": "uint256"
        }
      ],
      "name": "ERC1155InsufficientBalance",
      "type": "error"
    },
    {
      "inputs": [
        {
          "internalType": "address",
          "name": "approver",
          "type": "address"
        }
      ],
      "name": "ERC1155InvalidApprover",
      "type": "error"
    },
    {
      "inputs": [
        {
          "internalType": "uint256",
          "name": "idsLength",
          "type": "uint256"
        },
        {
          "internalType": "uint256",
          "name": "valuesLength",
          "type": "uint256"
        }
      ],
      "name": "ERC1155InvalidArrayLength",
      "type": "error"
    },
    {
      "inputs": [
        {
          "internalType": "address",
          "name": "operator",
          "type": "address"
        }
      ],
      "name": "ERC1155InvalidOperator",
      "type": "error"
    },
    {
      "inputs": [
        {
          "internalType": "address",
          "name": "receiver",
          "type": "address"
        }
      ],
      "name": "ERC1155InvalidReceiver",
      "type": "error"
    },
    {
      "inputs": [
        {
          "internalType": "address",
          "name": "sender",
          "type": "address"
        }
      ],
      "name": "ERC1155InvalidSender",
      "type": "error"
    },
    {
      "inputs": [
        {
          "internalType": "address",
          "name": "operator",
          "type": "address"
        },
        {
          "internalType": "address",
          "name": "owner",
          "type": "address"
        }
      ],
      "name": "ERC1155MissingApprovalForAll",
      "type": "error"
    },
    {
      "inputs": [],
      "name": "EnforcedPause",
      "type": "error"
    },
    {
      "inputs": [],
      "name": "ExpectedPause",
      "type": "error"
    },
    {
      "inputs": [],
      "name": "InvalidBadge",
      "type": "error"
    },
    {
      "inputs": [],
      "name": "NotEligible",
      "type": "error"
    },
    {
      "inputs": [
        {
          "internalType": "address",
          "name": "owner",
          "type": "address"
        }
      ],
      "name": "OwnableInvalidOwner",
      "type": "error"
    },
    {
      "inputs": [
        {
          "internalType": "address",
          "name": "account",
          "type": "address"
        }
      ],
      "name": "OwnableUnauthorizedAccount",
      "type": "error"
    },
    {
      "inputs": [],
      "name": "TransfersDisabled",
      "type": "error"
    },
    {
      "anonymous": false,
      "inputs": [
        {
          "indexed": true,
          "internalType": "address",
          "name": "account",
          "type": "address"
        },
        {
          "indexed": true,
          "internalType": "address",
          "name": "operator",
          "type": "address"
        },
        {
          "indexed": false,
          "internalType": "bool",
          "name": "approved",
          "type": "bool"
        }
      ],
      "name": "ApprovalForAll",
      "type": "event"
    },
    {
      "anonymous": false,
      "inputs": [
        {
          "indexed": true,
          "internalType": "address",
          "name": "user",
          "type": "address"
        },
        {
          "indexed": true,
          "internalType": "uint32",
          "name": "day",
          "type": "uint32"
        },
        {
          "indexed": false,
          "internalType": "uint32",
          "name": "streak",
          "type": "uint32"
        },
        {
          "indexed": false,
          "internalType": "uint8",
          "name": "reaction",
          "type": "uint8"
        }
      ],
      "name": "BM",
      "type": "event"
    },
    {
      "anonymous": false,
      "inputs": [
        {
          "indexed": true,
          "internalType": "address",
          "name": "user",
          "type": "address"
        },
        {
          "indexed": true,
          "internalType": "uint256",
          "name": "badgeId",
          "type": "uint256"
        },
        {
          "indexed": false,
          "internalType": "uint32",
          "name": "startDay",
          "type": "uint32"
        },
        {
          "indexed": false,
          "internalType": "uint32",
          "name": "endDay",
          "type": "uint32"
        }
      ],
      "name": "BadgeClaimed",
      "type": "event"
    },
    {
      "anonymous": false,
      "inputs": [
        {
          "indexed": false,
          "internalType": "uint256",
          "name": "feeWei",
          "type": "uint256"
        }
      ],
      "name": "BmFeeUpdated",
      "type": "event"
    },
    {
      "anonymous": false,
      "inputs": [
        {
          "indexed": true,
          "internalType": "address",
          "name": "previousOwner",
          "type": "address"
        },
        {
          "indexed": true,
          "internalType": "address",
          "name": "newOwner",
          "type": "address"
        }
      ],
      "name": "OwnershipTransferred",
      "type": "event"
    },
    {
      "anonymous": false,
      "inputs": [
        {
          "indexed": false,
          "internalType": "address",
          "name": "account",
          "type": "address"
        }
      ],
      "name": "Paused",
      "type": "event"
    },
    {
      "anonymous": false,
      "inputs": [
        {
          "indexed": true,
          "internalType": "address",
          "name": "operator",
          "type": "address"
        },
        {
          "indexed": true,
          "internalType": "address",
          "name": "from",
          "type": "address"
        },
        {
          "indexed": true,
          "internalType": "address",
          "name": "to",
          "type": "address"
        },
        {
          "indexed": false,
          "internalType": "uint256[]",
          "name": "ids",
          "type": "uint256[]"
        },
        {
          "indexed": false,
          "internalType": "uint256[]",
          "name": "values",
          "type": "uint256[]"
        }
      ],
      "name": "TransferBatch",
      "type": "event"
    },
    {
      "anonymous": false,
      "inputs": [
        {
          "indexed": true,
          "internalType": "address",
          "name": "operator",
          "type": "address"
        },
        {
          "indexed": true,
          "internalType": "address",
          "name": "from",
          "type": "address"
        },
        {
          "indexed": true,
          "internalType": "address",
          "name": "to",
          "type": "address"
        },
        {
          "indexed": false,
          "internalType": "uint256",
          "name": "id",
          "type": "uint256"
        },
        {
          "indexed": false,
          "internalType": "uint256",
          "name": "value",
          "type": "uint256"
        }
      ],
      "name": "TransferSingle",
      "type": "event"
    },
    {
      "anonymous": false,
      "inputs": [
        {
          "indexed": true,
          "internalType": "address",
          "name": "treasury",
          "type": "address"
        }
      ],
      "name": "TreasuryUpdated",
      "type": "event"
    },
    {
      "anonymous": false,
      "inputs": [
        {
          "indexed": false,
          "internalType": "string",
          "name": "value",
          "type": "string"
        },
        {
          "indexed": true,
          "internalType": "uint256",
          "name": "id",
          "type": "uint256"
        }
      ],
      "name": "URI",
      "type": "event"
    },
    {
      "anonymous": false,
      "inputs": [
        {
          "indexed": false,
          "internalType": "address",
          "name": "account",
          "type": "address"
        }
      ],
      "name": "Unpaused",
      "type": "event"
    },
    {
      "inputs": [],
      "name": "BADGE_180D",
      "outputs": [
        {
          "internalType": "uint256",
          "name": "",
          "type": "uint256"
        }
      ],
      "stateMutability": "view",
      "type": "function"
    },
    {
      "inputs": [],
      "name": "BADGE_30D",
      "outputs": [
        {
          "internalType": "uint256",
          "name": "",
          "type": "uint256"
        }
      ],
      "stateMutability": "view",
      "type": "function"
    },
    {
      "inputs": [],
      "name": "BADGE_365D",
      "outputs": [
        {
          "internalType": "uint256",
          "name": "",
          "type": "uint256"
        }
      ],
      "stateMutability": "view",
      "type": "function"
    },
    {
      "inputs": [],
      "name": "BADGE_7D",
      "outputs": [
        {
          "internalType": "uint256",
          "name": "",
          "type": "uint256"
        }
      ],
      "stateMutability": "view",
      "type": "function"
    },
    {
      "inputs": [],
      "name": "BADGE_90D",
      "outputs": [
        {
          "internalType": "uint256",
          "name": "",
          "type": "uint256"
        }
      ],
      "stateMutability": "view",
      "type": "function"
    },
    {
      "inputs": [
        {
          "internalType": "address",
          "name": "account",
          "type": "address"
        },
        {
          "internalType": "uint256",
          "name": "id",
          "type": "uint256"
        }
      ],
      "name": "balanceOf",
      "outputs": [
        {
          "internalType": "uint256",
          "name": "",
          "type": "uint256"
        }
      ],
      "stateMutability": "view",
      "type": "function"
    },
    {
      "inputs": [
        {
          "internalType": "address[]",
          "name": "accounts",
          "type": "address[]"
        },
        {
          "internalType": "uint256[]",
          "name": "ids",
          "type": "uint256[]"
        }
      ],
      "name": "balanceOfBatch",
      "outputs": [
        {
          "internalType": "uint256[]",
          "name": "",
          "type": "uint256[]"
        }
      ],
      "stateMutability": "view",
      "type": "function"
    },
    {
      "inputs": [
        {
          "internalType": "uint8",
          "name": "reaction",
          "type": "uint8"
        }
      ],
      "name": "bm",
      "outputs": [],
      "stateMutability": "payable",
      "type": "function"
    },
    {
      "inputs": [],
      "name": "bmFeeWei",
      "outputs": [
        {
          "internalType": "uint256",
          "name": "",
          "type": "uint256"
        }
      ],
      "stateMutability": "view",
      "type": "function"
    },
    {
      "inputs": [
        {
          "internalType": "uint256",
          "name": "badgeId",
          "type": "uint256"
        }
      ],
      "name": "claimBadge",
      "outputs": [],
      "stateMutability": "nonpayable",
      "type": "function"
    },
    {
      "inputs": [
        {
          "internalType": "address",
          "name": "",
          "type": "address"
        },
        {
          "internalType": "uint256",
          "name": "",
          "type": "uint256"
        }
      ],
      "name": "claimedWindow",
      "outputs": [
        {
          "internalType": "uint32",
          "name": "startDay",
          "type": "uint32"
        },
        {
          "internalType": "uint32",
          "name": "endDay",
          "type": "uint32"
        }
      ],
      "stateMutability": "view",
      "type": "function"
    },
    {
      "inputs": [
        {
          "internalType": "address",
          "name": "a",
          "type": "address"
        }
      ],
      "name": "currentStreakWindow",
      "outputs": [
        {
          "internalType": "uint32",
          "name": "startDay",
          "type": "uint32"
        },
        {
          "internalType": "uint32",
          "name": "endDay",
          "type": "uint32"
        },
        {
          "internalType": "uint256",
          "name": "startTs",
          "type": "uint256"
        },
        {
          "internalType": "uint256",
          "name": "endTs",
          "type": "uint256"
        }
      ],
      "stateMutability": "view",
      "type": "function"
    },
    {
      "inputs": [
        {
          "internalType": "uint256",
          "name": "ts",
          "type": "uint256"
        }
      ],
      "name": "dayNumberAt",
      "outputs": [
        {
          "internalType": "uint32",
          "name": "",
          "type": "uint32"
        }
      ],
      "stateMutability": "pure",
      "type": "function"
    },
    {
      "inputs": [
        {
          "internalType": "address",
          "name": "a",
          "type": "address"
        }
      ],
      "name": "getUser",
      "outputs": [
        {
          "internalType": "uint32",
          "name": "",
          "type": "uint32"
        },
        {
          "internalType": "uint32",
          "name": "",
          "type": "uint32"
        },
        {
          "internalType": "uint32",
          "name": "",
          "type": "uint32"
        },
        {
          "internalType": "uint64",
          "name": "",
          "type": "uint64"
        }
      ],
      "stateMutability": "view",
      "type": "function"
    },
    {
      "inputs": [],
      "name": "globalTotal",
      "outputs": [
        {
          "internalType": "uint64",
          "name": "",
          "type": "uint64"
        }
      ],
      "stateMutability": "view",
      "type": "function"
    },
    {
      "inputs": [
        {
          "internalType": "address",
          "name": "account",
          "type": "address"
        },
        {
          "internalType": "address",
          "name": "operator",
          "type": "address"
        }
      ],
      "name": "isApprovedForAll",
      "outputs": [
        {
          "internalType": "bool",
          "name": "",
          "type": "bool"
        }
      ],
      "stateMutability": "view",
      "type": "function"
    },
    {
      "inputs": [],
      "name": "owner",
      "outputs": [
        {
          "internalType": "address",
          "name": "",
          "type": "address"
        }
      ],
      "stateMutability": "view",
      "type": "function"
    },
    {
      "inputs": [],
      "name": "pause",
      "outputs": [],
      "stateMutability": "nonpayable",
      "type": "function"
    },
    {
      "inputs": [],
      "name": "paused",
      "outputs": [
        {
          "internalType": "bool",
          "name": "",
          "type": "bool"
        }
      ],
      "stateMutability": "view",
      "type": "function"
    },
    {
      "inputs": [],
      "name": "renounceOwnership",
      "outputs": [],
      "stateMutability": "nonpayable",
      "type": "function"
    },
    {
      "inputs": [
        {
          "internalType": "address",
          "name": "",
          "type": "address"
        },
        {
          "internalType": "address",
          "name": "",
          "type": "address"
        },
        {
          "internalType": "uint256[]",
          "name": "",
          "type": "uint256[]"
        },
        {
          "internalType": "uint256[]",
          "name": "",
          "type": "uint256[]"
        },
        {
          "internalType": "bytes",
          "name": "",
          "type": "bytes"
        }
      ],
      "name": "safeBatchTransferFrom",
      "outputs": [],
      "stateMutability": "pure",
      "type": "function"
    },
    {
      "inputs": [
        {
          "internalType": "address",
          "name": "",
          "type": "address"
        },
        {
          "internalType": "address",
          "name": "",
          "type": "address"
        },
        {
          "internalType": "uint256",
          "name": "",
          "type": "uint256"
        },
        {
          "internalType": "uint256",
          "name": "",
          "type": "uint256"
        },
        {
          "internalType": "bytes",
          "name": "",
          "type": "bytes"
        }
      ],
      "name": "safeTransferFrom",
      "outputs": [],
      "stateMutability": "pure",
      "type": "function"
    },
    {
      "inputs": [
        {
          "internalType": "address",
          "name": "",
          "type": "address"
        },
        {
          "internalType": "bool",
          "name": "",
          "type": "bool"
        }
      ],
      "name": "setApprovalForAll",
      "outputs": [],
      "stateMutability": "pure",
      "type": "function"
    },
    {
      "inputs": [
        {
          "internalType": "uint256",
          "name": "v",
          "type": "uint256"
        }
      ],
      "name": "setBmFeeWei",
      "outputs": [],
      "stateMutability": "nonpayable",
      "type": "function"
    },
    {
      "inputs": [
        {
          "internalType": "address",
          "name": "t",
          "type": "address"
        }
      ],
      "name": "setTreasury",
      "outputs": [],
      "stateMutability": "nonpayable",
      "type": "function"
    },
    {
      "inputs": [
        {
          "internalType": "string",
          "name": "newURI",
          "type": "string"
        }
      ],
      "name": "setURI",
      "outputs": [],
      "stateMutability": "nonpayable",
      "type": "function"
    },
    {
      "inputs": [
        {
          "internalType": "bytes4",
          "name": "interfaceId",
          "type": "bytes4"
        }
      ],
      "name": "supportsInterface",
      "outputs": [
        {
          "internalType": "bool",
          "name": "",
          "type": "bool"
        }
      ],
      "stateMutability": "view",
      "type": "function"
    },
    {
      "inputs": [
        {
          "internalType": "uint32",
          "name": "",
          "type": "uint32"
        }
      ],
      "name": "totalsByDay",
      "outputs": [
        {
          "internalType": "uint64",
          "name": "",
          "type": "uint64"
        }
      ],
      "stateMutability": "view",
      "type": "function"
    },
    {
      "inputs": [
        {
          "internalType": "address",
          "name": "newOwner",
          "type": "address"
        }
      ],
      "name": "transferOwnership",
      "outputs": [],
      "stateMutability": "nonpayable",
      "type": "function"
    },
    {
      "inputs": [],
      "name": "treasury",
      "outputs": [
        {
          "internalType": "address",
          "name": "",
          "type": "address"
        }
      ],
      "stateMutability": "view",
      "type": "function"
    },
    {
      "inputs": [],
      "name": "unpause",
      "outputs": [],
      "stateMutability": "nonpayable",
      "type": "function"
    },
    {
      "inputs": [
        {
          "internalType": "uint256",
          "name": "",
          "type": "uint256"
        }
      ],
      "name": "uri",
      "outputs": [
        {
          "internalType": "string",
          "name": "",
          "type": "string"
        }
      ],
      "stateMutability": "view",
      "type": "function"
    },
    {
      "inputs": [
        {
          "internalType": "address",
          "name": "",
          "type": "address"
        }
      ],
      "name": "users",
      "outputs": [
        {
          "internalType": "uint32",
          "name": "lastDay",
          "type": "uint32"
        },
        {
          "internalType": "uint32",
          "name": "currentStreak",
          "type": "uint32"
        },
        {
          "internalType": "uint32",
          "name": "longestStreak",
          "type": "uint32"
        },
        {
          "internalType": "uint64",
          "name": "total",
          "type": "uint64"
        }
      ],
      "stateMutability": "view",
      "type": "function"
    }
  ],
  "bytecode": "0x60806040523480156200001157600080fd5b506040516200240938038062002409833981016040819052620000349162000171565b81836200004181620000da565b506001600160a01b0381166200007157604051631e4fbdf760e01b81526000600482015260240160405180910390fd5b6200007c81620000ec565b506003805460ff60a01b19169055600880546001600160a01b0319166001600160a01b0383169081179091556040517f7dae230f18360d76a040c81f050aa14eb9d6dc7901b20fc5d855e2a20fe814d190600090a2505050620003c6565b6002620000e88282620002fa565b5050565b600380546001600160a01b038381166001600160a01b0319831681179093556040519116919082907f8be0079c531659141344cd1fd0a4f28419497f9722a3daafe3b4186f6b6457e090600090a35050565b634e487b7160e01b600052604160045260246000fd5b80516001600160a01b03811681146200016c57600080fd5b919050565b6000806000606084860312156200018757600080fd5b83516001600160401b03808211156200019f57600080fd5b818601915086601f830112620001b457600080fd5b815181811115620001c957620001c96200013e565b604051601f8201601f19908116603f01168101908382118183101715620001f457620001f46200013e565b816040528281526020935089848487010111156200021157600080fd5b600091505b8282101562000235578482018401518183018501529083019062000216565b60008484830101528097505050506200025081870162000154565b93505050620002626040850162000154565b90509250925092565b600181811c908216806200028057607f821691505b602082108103620002a157634e487b7160e01b600052602260045260246000fd5b50919050565b601f821115620002f557600081815260208120601f850160051c81016020861015620002d05750805b601f850160051c820191505b81811015620002f157828155600101620002dc565b5050505b505050565b81516001600160401b038111156200031657620003166200013e565b6200032e816200032784546200026b565b84620002a7565b602080601f8311600181146200036657600084156200034d5750858301515b600019600386901b1c1916600185901b178555620002f1565b600085815260208120601f198616915b82811015620003975788860151825594840194600190910190840162000376565b5085821015620003b65787850151600019600388901b60f8161c191681555b5050505050600190811b01905550565b61203380620003d66000396000f3fe6080604052600436106101ed5760003560e01c806389cc00f71161010d578063b3c3ee3f116100a0578063e91cb9e81161006f578063e91cb9e81461067f578063e985e9c514610692578063f0f44260146106db578063f242432a146106fb578063f2fde38b1461071657600080fd5b8063b3c3ee3f1461060b578063c5644ff414610620578063d7b3569914610635578063e46a84a11461066a57600080fd5b8063a22cb465116100dc578063a22cb46514610562578063a510cda91461057d578063a87430ba14610592578063af15319d146105eb57600080fd5b806389cc00f7146104605780638da5cb5b146104c6578063905c1891146104e457806390f5dad21461051a57600080fd5b80633f4ba83a1161018557806361d027b31161015457806361d027b3146103a85780636f77926b146103e0578063715018a6146104365780638456cb591461044b57600080fd5b80633f4ba83a146103315780634e1273f4146103465780635a6da29f146103735780635c975abb1461038957600080fd5b806323415135116101c157806323415135146102a45780632eb2c2d6146102c457806334206675146102e457806336a751f5146102f957600080fd5b8062fdd58e146101f257806301ffc9a71461022557806302fe5305146102555780630e89341c14610277575b600080fd5b3480156101fe57600080fd5b5061021261020d366004611768565b610736565b6040519081526020015b60405180910390f35b34801561023157600080fd5b506102456102403660046117a8565b61075e565b604051901515815260200161021c565b34801561026157600080fd5b50610275610270366004611869565b6107ae565b005b34801561028357600080fd5b506102976102923660046118b9565b6107c2565b60405161021c9190611918565b3480156102b057600080fd5b506102756102bf3660046118b9565b610856565b3480156102d057600080fd5b506102756102df3660046119d9565b6109ef565b3480156102f057600080fd5b50610212600281565b34801561030557600080fd5b50600654610319906001600160401b031681565b6040516001600160401b03909116815260200161021c565b34801561033d57600080fd5b50610275610a08565b34801561035257600080fd5b50610366610361366004611a82565b610a1a565b60405161021c9190611b7c565b34801561037f57600080fd5b5061021260095481565b34801561039557600080fd5b50600354600160a01b900460ff16610245565b3480156103b457600080fd5b506008546103c8906001600160a01b031681565b6040516001600160a01b03909116815260200161021c565b3480156103ec57600080fd5b506104006103fb366004611b8f565b610af3565b6040805163ffffffff9586168152938516602085015291909316908201526001600160401b03909116606082015260800161021c565b34801561044257600080fd5b50610275610b66565b34801561045757600080fd5b50610275610b78565b34801561046c57600080fd5b506104a961047b366004611768565b600560209081526000928352604080842090915290825290205463ffffffff80821691600160201b90041682565b6040805163ffffffff93841681529290911660208301520161021c565b3480156104d257600080fd5b506003546001600160a01b03166103c8565b3480156104f057600080fd5b506103196104ff366004611baa565b6007602052600090815260409020546001600160401b031681565b34801561052657600080fd5b5061053a610535366004611b8f565b610b88565b6040805163ffffffff958616815294909316602085015291830152606082015260800161021c565b34801561056e57600080fd5b506102756102df366004611bd0565b34801561058957600080fd5b50610212600581565b34801561059e57600080fd5b506104006105ad366004611b8f565b60046020526000908152604090205463ffffffff80821691600160201b8104821691600160401b82041690600160601b90046001600160401b031684565b3480156105f757600080fd5b506102756106063660046118b9565b610c74565b34801561061757600080fd5b50610212600381565b34801561062c57600080fd5b50610212600481565b34801561064157600080fd5b506106556106503660046118b9565b610cb7565b60405163ffffffff909116815260200161021c565b34801561067657600080fd5b50610212600181565b61027561068d366004611c0c565b610cc2565b34801561069e57600080fd5b506102456106ad366004611c2f565b6001600160a01b03918216600090815260016020908152604080832093909416825291909152205460ff1690565b3480156106e757600080fd5b506102756106f6366004611b8f565b610fd6565b34801561070757600080fd5b506102756102df366004611c62565b34801561072257600080fd5b50610275610731366004611b8f565b611028565b6000818152602081815260408083206001600160a01b03861684529091529020545b92915050565b60006001600160e01b03198216636cdb3d1360e11b148061078f57506001600160e01b031982166303a24d0760e21b145b8061075857506301ffc9a760e01b6001600160e01b0319831614610758565b6107b6611063565b6107bf81611090565b50565b6060600280546107d190611cc6565b80601f01602080910402602001604051908101604052809291908181526020018280546107fd90611cc6565b801561084a5780601f1061081f5761010080835404028352916020019161084a565b820191906000526020600020905b81548152906001019060200180831161082d57829003601f168201915b50505050509050919050565b61085e6110a0565b6000610869826110cb565b336000908152600460209081526040918290208251608081018452905463ffffffff8082168352600160201b82048116938301849052600160401b8204811694830194909452600160601b90046001600160401b0316606082015292935090831611156108e957604051637c75aa6f60e11b815260040160405180910390fd5b60006108f53385610736565b111561091457604051637c75aa6f60e11b815260040160405180910390fd5b805160006109228483611d16565b61092d906001611d3a565b60408051808201825263ffffffff80841682528581166020808401918252336000818152600583528681208d825283528681209551865494518616600160201b0267ffffffffffffffff1990951695169490941792909217909355835192830190935281529192506109a3918790600190611137565b6040805163ffffffff808416825284166020820152869133917f5f39b85eab961ccabe8a646aa9f1ab809d834638dceb6e1227cad2f3755240a791015b60405180910390a35050505050565b604051638574adcf60e01b815260040160405180910390fd5b610a10611063565b610a1861119c565b565b60608151835114610a505781518351604051635b05999160e01b8152600481019290925260248201526044015b60405180910390fd5b600083516001600160401b03811115610a6b57610a6b6117cc565b604051908082528060200260200182016040528015610a94578160200160208202803683370190505b50905060005b8451811015610aeb57602080820286010151610abe90602080840287010151610736565b828281518110610ad057610ad0611d57565b6020908102919091010152610ae481611d6d565b9050610a9a565b509392505050565b6001600160a01b0381166000908152600460209081526040918290208251608081018452905463ffffffff808216808452600160201b83048216948401859052600160401b8304909116948301859052600160601b9091046001600160401b0316606090920182905292905b9193509193565b610b6e611063565b610a1860006111f1565b610b80611063565b610a18611243565b6001600160a01b03811660009081526004602090815260408083208151608081018352905463ffffffff8082168352600160201b82048116948301859052600160401b82041692820192909252600160601b9091046001600160401b031660608201528291829182918203610c0b57600080600080945094509450945050610b5f565b80516020820151909450610c1f9085611d16565b610c2a906001611d3a565b9450610c3f63ffffffff861662015180611d86565b92506001610c5363ffffffff861682611d9d565b610c609062015180611d86565b610c6a9190611db0565b9150509193509193565b610c7c611063565b60098190556040518181527fb4f02291bd99096989b909ad598ac47a1360e16705fe9cd5592ced95ecfe70a29060200160405180910390a150565b600061075882611286565b610cca6110a0565b60095415610d94576009543414610d095760405162461bcd60e51b815260206004820152600360248201526246454560e81b6044820152606401610a47565b6008546040516000916001600160a01b03169034908381818185875af1925050503d8060008114610d56576040519150601f19603f3d011682016040523d82523d6000602084013e610d5b565b606091505b5050905080610d925760405162461bcd60e51b815260206004820152600360248201526250415960e81b6044820152606401610a47565b505b6000610d9f42611286565b336000908152600460209081526040918290208251608081018452905463ffffffff808216808452600160201b8304821694840194909452600160401b8204811694830194909452600160601b90046001600160401b031660608201529293509083169003610e2157604051630c98289f60e41b815260040160405180910390fd5b805160009063ffffffff841690610e39906001611d3a565b63ffffffff16148015610e525750815163ffffffff1615155b610e5d576001610e6d565b6020820151610e6d906001611d3a565b604083015190915063ffffffff8082169083161115610e895750805b60405180608001604052808563ffffffff1681526020018363ffffffff1681526020018263ffffffff16815260200184606001516001610ec99190611dc3565b6001600160401b039081169091523360008181526004602090815260408083208651815488850151898501516060909a01518916600160601b0267ffffffffffffffff60601b1963ffffffff9b8c16600160401b021673ffffffffffffffffffffffff000000000000000019928c16600160201b0267ffffffffffffffff19948516958d1695909517949094179190911692909217919091179091556006805480881660019081018916918416919091179091558b8816808652600785529483902080548089169092019097169116179094558351948716855260ff8a16908501529290917f4375140ae56df030c213d2ec913e0f47eadefae5ac3401403c57fb98808688bf91016109e0565b610fde611063565b600880546001600160a01b0319166001600160a01b0383169081179091556040517f7dae230f18360d76a040c81f050aa14eb9d6dc7901b20fc5d855e2a20fe814d190600090a250565b611030611063565b6001600160a01b03811661105a57604051631e4fbdf760e01b815260006004820152602401610a47565b6107bf816111f1565b6003546001600160a01b03163314610a185760405163118cdaa760e01b8152336004820152602401610a47565b600261109c8282611e2e565b5050565b600354600160a01b900460ff1615610a185760405163d93c066560e01b815260040160405180910390fd5b6000600182036110dd57506007919050565b600282036110ed5750601e919050565b600382036110fd5750605a919050565b6004820361110d575060b4919050565b6005820361111e575061016d919050565b60405163f1fffa1560e01b815260040160405180910390fd5b6001600160a01b03841661116157604051632bfa23e760e11b815260006004820152602401610a47565b60408051600180825260208201869052818301908152606082018590526080820190925290611194600087848487611295565b505050505050565b6111a46112ef565b6003805460ff60a01b191690557f5db9ee0a495bf2e6ff9c91a7834c1ba4fdd244a5e8aa4e537bd38aeae4b073aa335b6040516001600160a01b03909116815260200160405180910390a1565b600380546001600160a01b038381166001600160a01b0319831681179093556040519116919082907f8be0079c531659141344cd1fd0a4f28419497f9722a3daafe3b4186f6b6457e090600090a35050565b61124b6110a0565b6003805460ff60a01b1916600160a01b1790557f62e78cea01bee320cd4e420270b5ea74000d11b0c9f74754ebdbfc544b05a2586111d43390565b60006107586201518083611eed565b6112a185858585611319565b6001600160a01b038416156112e857825133906001036112da57602084810151908401516112d3838989858589611536565b5050611194565b611194818787878787611663565b5050505050565b600354600160a01b900460ff16610a1857604051638dfc202b60e01b815260040160405180910390fd5b80518251146113485781518151604051635b05999160e01b815260048101929092526024820152604401610a47565b3360005b8351811015611457576020818102858101820151908501909101516001600160a01b038816156113ff576000828152602081815260408083206001600160a01b038c168452909152902054818110156113d8576040516303dee4c560e01b81526001600160a01b038a166004820152602481018290526044810183905260648101849052608401610a47565b6000838152602081815260408083206001600160a01b038d16845290915290209082900390555b6001600160a01b03871615611444576000828152602081815260408083206001600160a01b038b1684529091528120805483929061143e908490611d9d565b90915550505b50508061145090611d6d565b905061134c565b5082516001036114d85760208301516000906020840151909150856001600160a01b0316876001600160a01b0316846001600160a01b03167fc3d58168c5ae7397731d063d5bbf3d657854427343f4c083240f7aacaa2d0f6285856040516114c9929190918252602082015260400190565b60405180910390a450506112e8565b836001600160a01b0316856001600160a01b0316826001600160a01b03167f4a39dc06d4c0dbc64b70af90fd698a233a518aa5d07e595d983b8c0526c8f7fb8686604051611527929190611f0f565b60405180910390a45050505050565b6001600160a01b0384163b156111945760405163f23a6e6160e01b81526001600160a01b0385169063f23a6e619061157a9089908990889088908890600401611f3d565b6020604051808303816000875af19250505080156115b5575060408051601f3d908101601f191682019092526115b291810190611f82565b60015b61161e573d8080156115e3576040519150601f19603f3d011682016040523d82523d6000602084013e6115e8565b606091505b50805160000361161657604051632bfa23e760e11b81526001600160a01b0386166004820152602401610a47565b805181602001fd5b6001600160e01b0319811663f23a6e6160e01b1461165a57604051632bfa23e760e11b81526001600160a01b0386166004820152602401610a47565b50505050505050565b6001600160a01b0384163b156111945760405163bc197c8160e01b81526001600160a01b0385169063bc197c81906116a79089908990889088908890600401611f9f565b6020604051808303816000875af19250505080156116e2575060408051601f3d908101601f191682019092526116df91810190611f82565b60015b611710573d8080156115e3576040519150601f19603f3d011682016040523d82523d6000602084013e6115e8565b6001600160e01b0319811663bc197c8160e01b1461165a57604051632bfa23e760e11b81526001600160a01b0386166004820152602401610a47565b80356001600160a01b038116811461176357600080fd5b919050565b6000806040838503121561177b57600080fd5b6117848361174c565b946020939093013593505050565b6001600160e01b0319811681146107bf57600080fd5b6000602082840312156117ba57600080fd5b81356117c581611792565b9392505050565b634e487b7160e01b600052604160045260246000fd5b604051601f8201601f191681016001600160401b038111828210171561180a5761180a6117cc565b604052919050565b60006001600160401b0383111561182b5761182b6117cc565b61183e601f8401601f19166020016117e2565b905082815283838301111561185257600080fd5b828260208301376000602084830101529392505050565b60006020828403121561187b57600080fd5b81356001600160401b0381111561189157600080fd5b8201601f810184136118a257600080fd5b6118b184823560208401611812565b949350505050565b6000602082840312156118cb57600080fd5b5035919050565b6000815180845260005b818110156118f8576020818501810151868301820152016118dc565b506000602082860101526020601f19601f83011685010191505092915050565b6020815260006117c560208301846118d2565b60006001600160401b03821115611944576119446117cc565b5060051b60200190565b600082601f83011261195f57600080fd5b8135602061197461196f8361192b565b6117e2565b82815260059290921b8401810191818101908684111561199357600080fd5b8286015b848110156119ae5780358352918301918301611997565b509695505050505050565b600082601f8301126119ca57600080fd5b6117c583833560208501611812565b600080600080600060a086880312156119f157600080fd5b6119fa8661174c565b9450611a086020870161174c565b935060408601356001600160401b0380821115611a2457600080fd5b611a3089838a0161194e565b94506060880135915080821115611a4657600080fd5b611a5289838a0161194e565b93506080880135915080821115611a6857600080fd5b50611a75888289016119b9565b9150509295509295909350565b60008060408385031215611a9557600080fd5b82356001600160401b0380821115611aac57600080fd5b818501915085601f830112611ac057600080fd5b81356020611ad061196f8361192b565b82815260059290921b84018101918181019089841115611aef57600080fd5b948201945b83861015611b1457611b058661174c565b82529482019490820190611af4565b96505086013592505080821115611b2a57600080fd5b50611b378582860161194e565b9150509250929050565b600081518084526020808501945080840160005b83811015611b7157815187529582019590820190600101611b55565b509495945050505050565b6020815260006117c56020830184611b41565b600060208284031215611ba157600080fd5b6117c58261174c565b600060208284031215611bbc57600080fd5b813563ffffffff811681146117c557600080fd5b60008060408385031215611be357600080fd5b611bec8361174c565b915060208301358015158114611c0157600080fd5b809150509250929050565b600060208284031215611c1e57600080fd5b813560ff811681146117c557600080fd5b60008060408385031215611c4257600080fd5b611c4b8361174c565b9150611c596020840161174c565b90509250929050565b600080600080600060a08688031215611c7a57600080fd5b611c838661174c565b9450611c916020870161174c565b9350604086013592506060860135915060808601356001600160401b03811115611cba57600080fd5b611a75888289016119b9565b600181811c90821680611cda57607f821691505b602082108103611cfa57634e487b7160e01b600052602260045260246000fd5b50919050565b634e487b7160e01b600052601160045260246000fd5b63ffffffff828116828216039080821115611d3357611d33611d00565b5092915050565b63ffffffff818116838216019080821115611d3357611d33611d00565b634e487b7160e01b600052603260045260246000fd5b600060018201611d7f57611d7f611d00565b5060010190565b808202811582820484141761075857610758611d00565b8082018082111561075857610758611d00565b8181038181111561075857610758611d00565b6001600160401b03818116838216019080821115611d3357611d33611d00565b601f821115611e2957600081815260208120601f850160051c81016020861015611e0a5750805b601f850160051c820191505b8181101561119457828155600101611e16565b505050565b81516001600160401b03811115611e4757611e476117cc565b611e5b81611e558454611cc6565b84611de3565b602080601f831160018114611e905760008415611e785750858301515b600019600386901b1c1916600185901b178555611194565b600085815260208120601f198616915b82811015611ebf57888601518255948401946001909101908401611ea0565b5085821015611edd5787850151600019600388901b60f8161c191681555b5050505050600190811b01905550565b600082611f0a57634e487b7160e01b600052601260045260246000fd5b500490565b604081526000611f226040830185611b41565b8281036020840152611f348185611b41565b95945050505050565b6001600160a01b03868116825285166020820152604081018490526060810183905260a060808201819052600090611f77908301846118d2565b979650505050505050565b600060208284031215611f9457600080fd5b81516117c581611792565b6001600160a01b0386811682528516602082015260a060408201819052600090611fcb90830186611b41565b8281036060840152611fdd8186611b41565b90508281036080840152611ff181856118d2565b9897505050505050505056fea26469706673582212202b03f3cb12a5e3b1215f4970ede60b9c3fe29d267df6cce56b7c3a58d02172d864736f6c63430008140033",
  "linkReferences": {},
  "deployedLinkReferences": {}
}